{
  "contractName": "Commodity",
  "abi": [
    {
      "constant": true,
      "inputs": [],
      "name": "owner",
      "outputs": [
        {
          "name": "",
          "type": "address"
        }
      ],
      "payable": false,
      "stateMutability": "view",
      "type": "function"
    },
    {
      "inputs": [],
      "payable": false,
      "stateMutability": "nonpayable",
      "type": "constructor"
    },
    {
      "constant": false,
      "inputs": [
        {
          "name": "index",
          "type": "uint256"
        },
        {
          "name": "title",
          "type": "string"
        },
        {
          "name": "company",
          "type": "string"
        },
        {
          "name": "description",
          "type": "string"
        }
      ],
      "name": "createProductType",
      "outputs": [],
      "payable": false,
      "stateMutability": "nonpayable",
      "type": "function"
    },
    {
      "constant": true,
      "inputs": [
        {
          "name": "index",
          "type": "uint256"
        }
      ],
      "name": "getProductInfo",
      "outputs": [
        {
          "name": "t",
          "type": "string"
        },
        {
          "name": "c",
          "type": "string"
        },
        {
          "name": "d",
          "type": "string"
        }
      ],
      "payable": false,
      "stateMutability": "view",
      "type": "function"
    },
    {
      "constant": false,
      "inputs": [
        {
          "name": "productTypeIndex",
          "type": "uint256"
        },
        {
          "name": "itemIndex",
          "type": "uint256"
        },
        {
          "name": "code",
          "type": "uint256"
        },
        {
          "name": "longti",
          "type": "string"
        },
        {
          "name": "lantitude",
          "type": "string"
        },
        {
          "name": "state",
          "type": "uint8"
        },
        {
          "name": "time",
          "type": "uint256"
        }
      ],
      "name": "addProductItem",
      "outputs": [],
      "payable": false,
      "stateMutability": "nonpayable",
      "type": "function"
    },
    {
      "constant": false,
      "inputs": [
        {
          "name": "productTypeIndex",
          "type": "uint256"
        },
        {
          "name": "itemIndex",
          "type": "uint256"
        },
        {
          "name": "code",
          "type": "uint256"
        },
        {
          "name": "newCode",
          "type": "uint256"
        },
        {
          "name": "state",
          "type": "uint8"
        },
        {
          "name": "longti",
          "type": "string"
        },
        {
          "name": "lanti",
          "type": "string"
        },
        {
          "name": "time",
          "type": "uint256"
        }
      ],
      "name": "scanProductItem",
      "outputs": [],
      "payable": false,
      "stateMutability": "nonpayable",
      "type": "function"
    },
    {
      "constant": false,
      "inputs": [
        {
          "name": "productTypeIndex",
          "type": "uint256"
        },
        {
          "name": "itemIndex",
          "type": "uint256"
        },
        {
          "name": "user",
          "type": "address"
        }
      ],
      "name": "destoryProductItem",
      "outputs": [
        {
          "name": "",
          "type": "bool"
        }
      ],
      "payable": false,
      "stateMutability": "nonpayable",
      "type": "function"
    }
  ],
  "bytecode": "0x608060405234801561001057600080fd5b50336000806101000a81548173ffffffffffffffffffffffffffffffffffffffff021916908373ffffffffffffffffffffffffffffffffffffffff1602179055506132c7806100606000396000f300608060405260043610610078576000357c0100000000000000000000000000000000000000000000000000000000900463ffffffff168063467314501461007d57806379a85e6c146101615780638da5cb5b146102df5780639ccf94b614610336578063a5a5959c14610435578063f0da063b14610523575b600080fd5b34801561008957600080fd5b5061015f600480360381019080803590602001909291908035906020019092919080359060200190929190803590602001908201803590602001908080601f0160208091040260200160405190810160405280939291908181526020018383808284378201915050505050509192919290803590602001908201803590602001908080601f0160208091040260200160405190810160405280939291908181526020018383808284378201915050505050509192919290803560ff16906020019092919080359060200190929190505050610592565b005b34801561016d57600080fd5b5061018c6004803603810190808035906020019092919050505061074d565b60405180806020018060200180602001848103845287818151815260200191508051906020019080838360005b838110156101d45780820151818401526020810190506101b9565b50505050905090810190601f1680156102015780820380516001836020036101000a031916815260200191505b50848103835286818151815260200191508051906020019080838360005b8381101561023a57808201518184015260208101905061021f565b50505050905090810190601f1680156102675780820380516001836020036101000a031916815260200191505b50848103825285818151815260200191508051906020019080838360005b838110156102a0578082015181840152602081019050610285565b50505050905090810190601f1680156102cd5780820380516001836020036101000a031916815260200191505b50965050505050505060405180910390f35b3480156102eb57600080fd5b506102f4610ad7565b604051808273ffffffffffffffffffffffffffffffffffffffff1673ffffffffffffffffffffffffffffffffffffffff16815260200191505060405180910390f35b34801561034257600080fd5b5061043360048036038101908080359060200190929190803590602001908201803590602001908080601f0160208091040260200160405190810160405280939291908181526020018383808284378201915050505050509192919290803590602001908201803590602001908080601f0160208091040260200160405190810160405280939291908181526020018383808284378201915050505050509192919290803590602001908201803590602001908080601f0160208091040260200160405190810160405280939291908181526020018383808284378201915050505050509192919290505050610afc565b005b34801561044157600080fd5b5061052160048036038101908080359060200190929190803590602001909291908035906020019092919080359060200190929190803560ff169060200190929190803590602001908201803590602001908080601f0160208091040260200160405190810160405280939291908181526020018383808284378201915050505050509192919290803590602001908201803590602001908080601f016020809104026020016040519081016040528093929190818152602001838380828437820191505050505050919291929080359060200190929190505050610d44565b005b34801561052f57600080fd5b506105786004803603810190808035906020019092919080359060200190929190803573ffffffffffffffffffffffffffffffffffffffff169060200190929190505050610f2c565b604051808215151515815260200191505060405180910390f35b6001600088815260200190815260200160002060009054906101000a900473ffffffffffffffffffffffffffffffffffffffff1673ffffffffffffffffffffffffffffffffffffffff1663a650ecff8787878787876040518763ffffffff167c01000000000000000000000000000000000000000000000000000000000281526004018087815260200186815260200180602001806020018560ff1660ff168152602001848152602001838103835287818151815260200191508051906020019080838360005b83811015610674578082015181840152602081019050610659565b50505050905090810190601f1680156106a15780820380516001836020036101000a031916815260200191505b50838103825286818151815260200191508051906020019080838360005b838110156106da5780820151818401526020810190506106bf565b50505050905090810190601f1680156107075780820380516001836020036101000a031916815260200191505b5098505050505050505050600060405180830381600087803b15801561072c57600080fd5b505af1158015610740573d6000803e3d6000fd5b5050505050505050505050565b60608060606001600085815260200190815260200160002060009054906101000a900473ffffffffffffffffffffffffffffffffffffffff1673ffffffffffffffffffffffffffffffffffffffff1663ff3c1a8f6040518163ffffffff167c0100000000000000000000000000000000000000000000000000000000028152600401600060405180830381600087803b1580156107e957600080fd5b505af11580156107fd573d6000803e3d6000fd5b505050506040513d6000823e3d601f19601f82011682018060405250602081101561082757600080fd5b81019080805164010000000081111561083f57600080fd5b8281019050602081018481111561085557600080fd5b815185600182028301116401000000008211171561087257600080fd5b50509291905050506001600086815260200190815260200160002060009054906101000a900473ffffffffffffffffffffffffffffffffffffffff1673ffffffffffffffffffffffffffffffffffffffff1663127810bc6040518163ffffffff167c0100000000000000000000000000000000000000000000000000000000028152600401600060405180830381600087803b15801561091157600080fd5b505af1158015610925573d6000803e3d6000fd5b505050506040513d6000823e3d601f19601f82011682018060405250602081101561094f57600080fd5b81019080805164010000000081111561096757600080fd5b8281019050602081018481111561097d57600080fd5b815185600182028301116401000000008211171561099a57600080fd5b50509291905050506001600087815260200190815260200160002060009054906101000a900473ffffffffffffffffffffffffffffffffffffffff1673ffffffffffffffffffffffffffffffffffffffff16631a0925416040518163ffffffff167c0100000000000000000000000000000000000000000000000000000000028152600401600060405180830381600087803b158015610a3957600080fd5b505af1158015610a4d573d6000803e3d6000fd5b505050506040513d6000823e3d601f19601f820116820180604052506020811015610a7757600080fd5b810190808051640100000000811115610a8f57600080fd5b82810190506020810184811115610aa557600080fd5b8151856001820283011164010000000082111715610ac257600080fd5b50509291905050509250925092509193909250565b6000809054906101000a900473ffffffffffffffffffffffffffffffffffffffff1681565b6000610b06611048565b604051809103906000f080158015610b22573d6000803e3d6000fd5b5090508073ffffffffffffffffffffffffffffffffffffffff166341e461a08585856040518463ffffffff167c010000000000000000000000000000000000000000000000000000000002815260040180806020018060200180602001848103845287818151815260200191508051906020019080838360005b83811015610bb7578082015181840152602081019050610b9c565b50505050905090810190601f168015610be45780820380516001836020036101000a031916815260200191505b50848103835286818151815260200191508051906020019080838360005b83811015610c1d578082015181840152602081019050610c02565b50505050905090810190601f168015610c4a5780820380516001836020036101000a031916815260200191505b50848103825285818151815260200191508051906020019080838360005b83811015610c83578082015181840152602081019050610c68565b50505050905090810190601f168015610cb05780820380516001836020036101000a031916815260200191505b509650505050505050600060405180830381600087803b158015610cd357600080fd5b505af1158015610ce7573d6000803e3d6000fd5b50505050806001600087815260200190815260200160002060006101000a81548173ffffffffffffffffffffffffffffffffffffffff021916908373ffffffffffffffffffffffffffffffffffffffff1602179055505050505050565b6001600089815260200190815260200160002060009054906101000a900473ffffffffffffffffffffffffffffffffffffffff1673ffffffffffffffffffffffffffffffffffffffff166363b76e60888888888888886040518863ffffffff167c0100000000000000000000000000000000000000000000000000000000028152600401808881526020018781526020018681526020018560ff1660ff1681526020018060200180602001848152602001838103835286818151815260200191508051906020019080838360005b83811015610e2d578082015181840152602081019050610e12565b50505050905090810190601f168015610e5a5780820380516001836020036101000a031916815260200191505b50838103825285818151815260200191508051906020019080838360005b83811015610e93578082015181840152602081019050610e78565b50505050905090810190601f168015610ec05780820380516001836020036101000a031916815260200191505b509950505050505050505050602060405180830381600087803b158015610ee657600080fd5b505af1158015610efa573d6000803e3d6000fd5b505050506040513d6020811015610f1057600080fd5b8101908080519060200190929190505050505050505050505050565b60006001600085815260200190815260200160002060009054906101000a900473ffffffffffffffffffffffffffffffffffffffff1673ffffffffffffffffffffffffffffffffffffffff166359c80a0584846040518363ffffffff167c0100000000000000000000000000000000000000000000000000000000028152600401808381526020018273ffffffffffffffffffffffffffffffffffffffff1673ffffffffffffffffffffffffffffffffffffffff16815260200192505050602060405180830381600087803b15801561100457600080fd5b505af1158015611018573d6000803e3d6000fd5b505050506040513d602081101561102e57600080fd5b810190808051906020019092919050505090509392505050565b60405161224380611059833901905600608060405234801561001057600080fd5b50612223806100206000396000f3006080604052600436106100ba576000357c0100000000000000000000000000000000000000000000000000000000900463ffffffff168063127810bc146100bf5780631a0925411461014f57806341e461a0146101df57806349a2a457146102d457806359c80a05146103415780635e183b4c146103a657806363b76e60146103d1578063a3865689146104cd578063a650ecff14610515578063ac2c8837146105ef578063b6199c2c146106a2578063ff3c1a8f1461070b575b600080fd5b3480156100cb57600080fd5b506100d461079b565b6040518080602001828103825283818151815260200191508051906020019080838360005b838110156101145780820151818401526020810190506100f9565b50505050905090810190601f1680156101415780820380516001836020036101000a031916815260200191505b509250505060405180910390f35b34801561015b57600080fd5b5061016461083d565b6040518080602001828103825283818151815260200191508051906020019080838360005b838110156101a4578082015181840152602081019050610189565b50505050905090810190601f1680156101d15780820380516001836020036101000a031916815260200191505b509250505060405180910390f35b3480156101eb57600080fd5b506102d2600480360381019080803590602001908201803590602001908080601f0160208091040260200160405190810160405280939291908181526020018383808284378201915050505050509192919290803590602001908201803590602001908080601f0160208091040260200160405190810160405280939291908181526020018383808284378201915050505050509192919290803590602001908201803590602001908080601f01602080910402602001604051908101604052809392919081815260200183838082843782019150505050505091929192905050506108df565b005b3480156102e057600080fd5b506102ff60048036038101908080359060200190929190505050610929565b604051808273ffffffffffffffffffffffffffffffffffffffff1673ffffffffffffffffffffffffffffffffffffffff16815260200191505060405180910390f35b34801561034d57600080fd5b5061038c60048036038101908080359060200190929190803573ffffffffffffffffffffffffffffffffffffffff169060200190929190505050610966565b604051808215151515815260200191505060405180910390f35b3480156103b257600080fd5b506103bb610a79565b6040518082815260200191505060405180910390f35b3480156103dd57600080fd5b506104b3600480360381019080803590602001909291908035906020019092919080359060200190929190803560ff169060200190929190803590602001908201803590602001908080601f0160208091040260200160405190810160405280939291908181526020018383808284378201915050505050509192919290803590602001908201803590602001908080601f016020809104026020016040519081016040528093929190818152602001838380828437820191505050505050919291929080359060200190929190505050610a86565b604051808215151515815260200191505060405180910390f35b3480156104d957600080fd5b50610513600480360381019080803590602001908201803590602001919091929391929390803560ff169060200190929190505050610c6a565b005b34801561052157600080fd5b506105ed6004803603810190808035906020019092919080359060200190929190803590602001908201803590602001908080601f0160208091040260200160405190810160405280939291908181526020018383808284378201915050505050509192919290803590602001908201803590602001908080601f0160208091040260200160405190810160405280939291908181526020018383808284378201915050505050509192919290803560ff16906020019092919080359060200190929190505050610d27565b005b3480156105fb57600080fd5b5061061a60048036038101908080359060200190929190505050610f5e565b60405180806020018360ff1660ff168152602001828103825284818151815260200191508051906020019080838360005b8381101561066657808201518184015260208101905061064b565b50505050905090810190601f1680156106935780820380516001836020036101000a031916815260200191505b50935050505060405180910390f35b3480156106ae57600080fd5b50610709600480360381019080803590602001908201803590602001908080601f0160208091040260200160405190810160405280939291908181526020018383808284378201915050505050509192919290505050611055565b005b34801561071757600080fd5b506107206111a0565b6040518080602001828103825283818151815260200191508051906020019080838360005b83811015610760578082015181840152602081019050610745565b50505050905090810190601f16801561078d5780820380516001836020036101000a031916815260200191505b509250505060405180910390f35b606060018054600181600116156101000203166002900480601f0160208091040260200160405190810160405280929190818152602001828054600181600116156101000203166002900480156108335780601f1061080857610100808354040283529160200191610833565b820191906000526020600020905b81548152906001019060200180831161081657829003601f168201915b5050505050905090565b606060028054600181600116156101000203166002900480601f0160208091040260200160405190810160405280929190818152602001828054600181600116156101000203166002900480156108d55780601f106108aa576101008083540402835291602001916108d5565b820191906000526020600020905b8154815290600101906020018083116108b857829003601f168201915b5050505050905090565b82600090805190602001906108f5929190611330565b50816001908051906020019061090c929190611330565b508060029080519060200190610923929190611330565b50505050565b60006004600083815260200190815260200160002060009054906101000a900473ffffffffffffffffffffffffffffffffffffffff169050919050565b60006004600084815260200190815260200160002060009054906101000a900473ffffffffffffffffffffffffffffffffffffffff1673ffffffffffffffffffffffffffffffffffffffff1663e8511df8836040518263ffffffff167c0100000000000000000000000000000000000000000000000000000000028152600401808273ffffffffffffffffffffffffffffffffffffffff1673ffffffffffffffffffffffffffffffffffffffff168152602001915050602060405180830381600087803b158015610a3657600080fd5b505af1158015610a4a573d6000803e3d6000fd5b505050506040513d6020811015610a6057600080fd5b8101908080519060200190929190505050905092915050565b6000600580549050905090565b60006004600089815260200190815260200160002060009054906101000a900473ffffffffffffffffffffffffffffffffffffffff1673ffffffffffffffffffffffffffffffffffffffff1663d80aefc48888888888886040518763ffffffff167c0100000000000000000000000000000000000000000000000000000000028152600401808781526020018681526020018560ff1660ff1681526020018060200180602001848152602001838103835286818151815260200191508051906020019080838360005b83811015610b6a578082015181840152602081019050610b4f565b50505050905090810190601f168015610b975780820380516001836020036101000a031916815260200191505b50838103825285818151815260200191508051906020019080838360005b83811015610bd0578082015181840152602081019050610bb5565b50505050905090810190601f168015610bfd5780820380516001836020036101000a031916815260200191505b5098505050505050505050602060405180830381600087803b158015610c2257600080fd5b505af1158015610c36573d6000803e3d6000fd5b505050506040513d6020811015610c4c57600080fd5b81019080805190602001909291905050509050979650505050505050565b600560408051908101604052808360ff16815260200185858080601f0160208091040260200160405190810160405280939291908181526020018383808284378201915050505050508152509080600181540180825580915050906001820390600052602060002090600202016000909192909190915060008201518160000160006101000a81548160ff021916908360ff1602179055506020820151816001019080519060200190610d1e9291906113b0565b50505050505050565b6000610d31611430565b604051809103906000f080158015610d4d573d6000803e3d6000fd5b5090508073ffffffffffffffffffffffffffffffffffffffff1663afab25e7308989898989896040518863ffffffff167c0100000000000000000000000000000000000000000000000000000000028152600401808873ffffffffffffffffffffffffffffffffffffffff1673ffffffffffffffffffffffffffffffffffffffff16815260200187815260200186815260200180602001806020018560ff1660ff168152602001848152602001838103835287818151815260200191508051906020019080838360005b83811015610e32578082015181840152602081019050610e17565b50505050905090810190601f168015610e5f5780820380516001836020036101000a031916815260200191505b50838103825286818151815260200191508051906020019080838360005b83811015610e98578082015181840152602081019050610e7d565b50505050905090810190601f168015610ec55780820380516001836020036101000a031916815260200191505b509950505050505050505050600060405180830381600087803b158015610eeb57600080fd5b505af1158015610eff573d6000803e3d6000fd5b50505050806004600089815260200190815260200160002060006101000a81548173ffffffffffffffffffffffffffffffffffffffff021916908373ffffffffffffffffffffffffffffffffffffffff16021790555050505050505050565b60606000600583815481101515610f7157fe5b9060005260206000209060020201600101600584815481101515610f9157fe5b906000526020600020906002020160000160009054906101000a900460ff16818054600181600116156101000203166002900480601f0160208091040260200160405190810160405280929190818152602001828054600181600116156101000203166002900480156110455780601f1061101a57610100808354040283529160200191611045565b820191906000526020600020905b81548152906001019060200180831161102857829003601f168201915b5050505050915091509150915091565b6000806000835111151561106857600080fd5b60009150600090505b6003805490508110156111545761113960038281548110151561109057fe5b906000526020600020018054600181600116156101000203166002900480601f01602080910402602001604051908101604052809291908181526020018280546001816001161561010002031660029004801561112e5780601f106111035761010080835404028352916020019161112e565b820191906000526020600020905b81548152906001019060200180831161111157829003601f168201915b505050505084611242565b156111475760019150611154565b8080600101915050611071565b81151561119b576003839080600181540180825580915050906001820390600052602060002001600090919290919091509080519060200190611198929190611330565b50505b505050565b606060008054600181600116156101000203166002900480601f0160208091040260200160405190810160405280929190818152602001828054600181600116156101000203166002900480156112385780601f1061120d57610100808354040283529160200191611238565b820191906000526020600020905b81548152906001019060200180831161121b57829003601f168201915b5050505050905090565b600081518351141515611258576000905061132a565b816040518082805190602001908083835b60208310151561128e5780518252602082019150602081019050602083039250611269565b6001836020036101000a038019825116818451168082178552505050505050905001915050604051809103902060001916836040518082805190602001908083835b6020831015156112f557805182526020820191506020810190506020830392506112d0565b6001836020036101000a0380198251168184511680821785525050505050509050019150506040518091039020600019161490505b92915050565b828054600181600116156101000203166002900490600052602060002090601f016020900481019282601f1061137157805160ff191683800117855561139f565b8280016001018555821561139f579182015b8281111561139e578251825591602001919060010190611383565b5b5090506113ac9190611440565b5090565b828054600181600116156101000203166002900490600052602060002090601f016020900481019282601f106113f157805160ff191683800117855561141f565b8280016001018555821561141f579182015b8281111561141e578251825591602001919060010190611403565b5b50905061142c9190611440565b5090565b604051610d928061146683390190565b61146291905b8082111561145e576000816000905550600101611446565b5090565b905600608060405234801561001057600080fd5b50610d72806100206000396000f3006080604052600436106100a4576000357c0100000000000000000000000000000000000000000000000000000000900463ffffffff1680631865c57d146100a95780633ce8a8bd146100da57806356de96db1461010557806396ba0cc814610135578063afab25e714610162578063aff6a8621461025c578063d47d77ba1461037e578063d80aefc4146103c1578063e8511df8146104b3578063fe586c9a1461050e575b600080fd5b3480156100b557600080fd5b506100be6105bd565b604051808260ff1660ff16815260200191505060405180910390f35b3480156100e657600080fd5b506100ef6105d4565b6040518082815260200191505060405180910390f35b34801561011157600080fd5b50610133600480360381019080803560ff1690602001909291905050506105e1565b005b34801561014157600080fd5b50610160600480360381019080803590602001909291905050506105ff565b005b34801561016e57600080fd5b5061025a600480360381019080803573ffffffffffffffffffffffffffffffffffffffff1690602001909291908035906020019092919080359060200190929190803590602001908201803590602001908080601f0160208091040260200160405190810160405280939291908181526020018383808284378201915050505050509192919290803590602001908201803590602001908080601f0160208091040260200160405190810160405280939291908181526020018383808284378201915050505050509192919290803560ff16906020019092919080359060200190929190505050610609565b005b34801561026857600080fd5b5061028a600480360381019080803560ff169060200190929190505050610791565b6040518080602001806020018460ff1660ff168152602001838103835286818151815260200191508051906020019080838360005b838110156102da5780820151818401526020810190506102bf565b50505050905090810190601f1680156103075780820380516001836020036101000a031916815260200191505b50838103825285818151815260200191508051906020019080838360005b83811015610340578082015181840152602081019050610325565b50505050905090810190601f16801561036d5780820380516001836020036101000a031916815260200191505b509550505050505060405180910390f35b34801561038a57600080fd5b506103bf600480360381019080803573ffffffffffffffffffffffffffffffffffffffff169060200190929190505050610952565b005b3480156103cd57600080fd5b506104996004803603810190808035906020019092919080359060200190929190803560ff169060200190929190803590602001908201803590602001908080601f0160208091040260200160405190810160405280939291908181526020018383808284378201915050505050509192919290803590602001908201803590602001908080601f016020809104026020016040519081016040528093929190818152602001838380828437820191505050505050919291929080359060200190929190505050610996565b604051808215151515815260200191505060405180910390f35b3480156104bf57600080fd5b506104f4600480360381019080803573ffffffffffffffffffffffffffffffffffffffff169060200190929190505050610b08565b604051808215151515815260200191505060405180910390f35b34801561051a57600080fd5b506105bb600480360381019080803590602001908201803590602001908080601f0160208091040260200160405190810160405280939291908181526020018383808284378201915050505050509192919290803590602001908201803590602001908080601f0160208091040260200160405190810160405280939291908181526020018383808284378201915050505050509192919290505050610ba4565b005b6000600560009054906101000a900460ff16905090565b6000600680549050905090565b80600560006101000a81548160ff021916908360ff16021790555050565b8060018190555050565b610611610bf5565b876000806101000a81548173ffffffffffffffffffffffffffffffffffffffff021916908373ffffffffffffffffffffffffffffffffffffffff16021790555085600181905550866002819055508460039080519060200190610675929190610c21565b50836004908051906020019061068c929190610c21565b5082600560006101000a81548160ff021916908360ff1602179055506080604051908101604052808681526020018581526020018460ff1681526020018381525090506000600560156101000a81548161ffff021916908361ffff160217905550806006600560159054906101000a900461ffff1661ffff1681548110151561071157fe5b9060005260206000209060040201600082015181600001908051906020019061073b929190610ca1565b506020820151816001019080519060200190610758929190610ca1565b5060408201518160020160006101000a81548160ff021916908360ff160217905550606082015181600301559050505050505050505050565b606080600060068460ff168154811015156107a857fe5b906000526020600020906004020160000160068560ff168154811015156107cb57fe5b906000526020600020906004020160010160068660ff168154811015156107ee57fe5b906000526020600020906004020160020160009054906101000a900460ff16828054600181600116156101000203166002900480601f0160208091040260200160405190810160405280929190818152602001828054600181600116156101000203166002900480156108a25780601f10610877576101008083540402835291602001916108a2565b820191906000526020600020905b81548152906001019060200180831161088557829003601f168201915b50505050509250818054600181600116156101000203166002900480601f01602080910402602001604051908101604052809291908181526020018280546001816001161561010002031660029004801561093e5780601f106109135761010080835404028352916020019161093e565b820191906000526020600020905b81548152906001019060200180831161092157829003601f168201915b505050505091509250925092509193909250565b80600560016101000a81548173ffffffffffffffffffffffffffffffffffffffff021916908373ffffffffffffffffffffffffffffffffffffffff16021790555050565b60006109a0610bf5565b6109a988610bd6565b156109b75760009150610afd565b8660018190555084600390805190602001906109d4929190610c21565b5083600490805190602001906109eb929190610c21565b5085600560006101000a81548160ff021916908360ff1602179055506080604051908101604052808681526020018581526020018760ff1681526020018481525090506001600560159054906101000a900461ffff1601600560156101000a81548161ffff021916908361ffff160217905550806006600560159054906101000a900461ffff1661ffff16815481101515610a8257fe5b90600052602060002090600402016000820151816000019080519060200190610aac929190610ca1565b506020820151816001019080519060200190610ac9929190610ca1565b5060408201518160020160006101000a81548160ff021916908360ff16021790555060608201518160030155905050600191505b509695505050505050565b60008173ffffffffffffffffffffffffffffffffffffffff16600560019054906101000a900473ffffffffffffffffffffffffffffffffffffffff1673ffffffffffffffffffffffffffffffffffffffff161415610b9b57600560019054906101000a900473ffffffffffffffffffffffffffffffffffffffff1673ffffffffffffffffffffffffffffffffffffffff16ff5b60009050919050565b8160039080519060200190610bba929190610c21565b508060049080519060200190610bd1929190610c21565b505050565b6000816001541415610beb5760019050610bf0565b600090505b919050565b6080604051908101604052806060815260200160608152602001600060ff168152602001600081525090565b828054600181600116156101000203166002900490600052602060002090601f016020900481019282601f10610c6257805160ff1916838001178555610c90565b82800160010185558215610c90579182015b82811115610c8f578251825591602001919060010190610c74565b5b509050610c9d9190610d21565b5090565b828054600181600116156101000203166002900490600052602060002090601f016020900481019282601f10610ce257805160ff1916838001178555610d10565b82800160010185558215610d10579182015b82811115610d0f578251825591602001919060010190610cf4565b5b509050610d1d9190610d21565b5090565b610d4391905b80821115610d3f576000816000905550600101610d27565b5090565b905600a165627a7a723058206483209cc23c54bfd99ae164cb85a7277a2c331ddfc4a8b7193a938ec3d574220029a165627a7a72305820a95d5bcb49c3f99f8b17b49af230b73f8790e24743a63db96892228873c3ebfc0029a165627a7a72305820370bb1b3c52a080c02afecc1ab421b7e0a1d37e008024e13f20a1da8411503850029",
  "source": "pragma solidity ^0.4.2;\n\nimport \"./ProductType.sol\";\n\ncontract Commodity {\n  address public owner;\n  mapping(uint256 => ProductType) internal typeList;\n\n\n constructor() public {\n    owner = msg.sender;\n  }\n\n function createProductType(uint256 index, string title, string company, string description) {\n   ProductType productType = new ProductType();\n   productType.init(title, company, description);\n   typeList[index] = productType;\n\n }\n\n function getProductInfo(uint256 index) external  view returns (string t, string c, string d) {\n   return (typeList[index].getTitle(), typeList[index].getCompany(),typeList[index].getDescription());\n\n }\n\n function addProductItem(uint256 productTypeIndex, uint256 itemIndex, uint256 code, string longti, string lantitude, uint8 state, uint256 time) {\n   typeList[productTypeIndex].creatProductItem(itemIndex,code,longti,lantitude, state, time);\n\n }\n\n function scanProductItem(uint256 productTypeIndex, uint256 itemIndex, uint256 code, uint256 newCode, uint8 state, string longti, string lanti, uint256 time){\n   typeList[productTypeIndex].scanProduct(itemIndex, code, newCode, state, longti, lanti, time);\n }\n\n function destoryProductItem(uint256 productTypeIndex, uint256 itemIndex, address user) returns (bool){\n   return typeList[productTypeIndex].destoryProductItem(itemIndex, user);\n }\n\n\n}\n",
  "sourcePath": "/Users/fuqinqin/Downloads/demo03/contracts/Commodity.sol",
  "compiler": {
    "name": "solc",
    "version": "0.4.24+commit.e67f0147.Emscripten.clang"
  },
  "schemaVersion": "2.0.1",
  "updatedAt": "2018-09-22T08:02:54.672Z"
}