{
  "contractName": "ProductItem",
  "abi": [
    {
      "inputs": [],
      "payable": false,
      "stateMutability": "nonpayable",
      "type": "constructor"
    },
    {
      "constant": false,
      "inputs": [
        {
          "name": "newCode",
          "type": "uint256"
        }
      ],
      "name": "setDynamicCode",
      "outputs": [],
      "payable": false,
      "stateMutability": "nonpayable",
      "type": "function"
    },
    {
      "constant": false,
      "inputs": [
        {
          "name": "newLong",
          "type": "string"
        },
        {
          "name": "newLant",
          "type": "string"
        }
      ],
      "name": "setLocation",
      "outputs": [],
      "payable": false,
      "stateMutability": "nonpayable",
      "type": "function"
    },
    {
      "constant": false,
      "inputs": [
        {
          "name": "newState",
          "type": "uint8"
        }
      ],
      "name": "setState",
      "outputs": [],
      "payable": false,
      "stateMutability": "nonpayable",
      "type": "function"
    },
    {
      "constant": false,
      "inputs": [
        {
          "name": "p",
          "type": "address"
        },
        {
          "name": "index",
          "type": "uint256"
        },
        {
          "name": "code",
          "type": "uint256"
        },
        {
          "name": "longti",
          "type": "string"
        },
        {
          "name": "lantitude",
          "type": "string"
        },
        {
          "name": "s",
          "type": "uint8"
        },
        {
          "name": "time",
          "type": "uint256"
        }
      ],
      "name": "init",
      "outputs": [],
      "payable": false,
      "stateMutability": "nonpayable",
      "type": "function"
    },
    {
      "constant": false,
      "inputs": [],
      "name": "getState",
      "outputs": [
        {
          "name": "",
          "type": "uint8"
        }
      ],
      "payable": false,
      "stateMutability": "nonpayable",
      "type": "function"
    },
    {
      "constant": false,
      "inputs": [
        {
          "name": "code",
          "type": "uint256"
        },
        {
          "name": "newCode",
          "type": "uint256"
        },
        {
          "name": "s",
          "type": "uint8"
        },
        {
          "name": "lon",
          "type": "string"
        },
        {
          "name": "lant",
          "type": "string"
        },
        {
          "name": "time",
          "type": "uint256"
        }
      ],
      "name": "scanProduct",
      "outputs": [
        {
          "name": "",
          "type": "bool"
        }
      ],
      "payable": false,
      "stateMutability": "nonpayable",
      "type": "function"
    },
    {
      "constant": true,
      "inputs": [],
      "name": "getStateLen",
      "outputs": [
        {
          "name": "",
          "type": "uint256"
        }
      ],
      "payable": false,
      "stateMutability": "view",
      "type": "function"
    },
    {
      "constant": false,
      "inputs": [
        {
          "name": "index",
          "type": "uint8"
        }
      ],
      "name": "getSateInfo",
      "outputs": [
        {
          "name": "",
          "type": "string"
        },
        {
          "name": "",
          "type": "string"
        },
        {
          "name": "",
          "type": "uint8"
        }
      ],
      "payable": false,
      "stateMutability": "nonpayable",
      "type": "function"
    },
    {
      "constant": false,
      "inputs": [
        {
          "name": "buyer",
          "type": "address"
        }
      ],
      "name": "buyThis",
      "outputs": [],
      "payable": false,
      "stateMutability": "nonpayable",
      "type": "function"
    },
    {
      "constant": false,
      "inputs": [
        {
          "name": "user",
          "type": "address"
        }
      ],
      "name": "destoryThis",
      "outputs": [
        {
          "name": "",
          "type": "bool"
        }
      ],
      "payable": false,
      "stateMutability": "nonpayable",
      "type": "function"
    }
  ],
  "bytecode": "0x608060405234801561001057600080fd5b50610d72806100206000396000f3006080604052600436106100a4576000357c0100000000000000000000000000000000000000000000000000000000900463ffffffff1680631865c57d146100a95780633ce8a8bd146100da57806356de96db1461010557806396ba0cc814610135578063afab25e714610162578063aff6a8621461025c578063d47d77ba1461037e578063d80aefc4146103c1578063e8511df8146104b3578063fe586c9a1461050e575b600080fd5b3480156100b557600080fd5b506100be6105bd565b604051808260ff1660ff16815260200191505060405180910390f35b3480156100e657600080fd5b506100ef6105d4565b6040518082815260200191505060405180910390f35b34801561011157600080fd5b50610133600480360381019080803560ff1690602001909291905050506105e1565b005b34801561014157600080fd5b50610160600480360381019080803590602001909291905050506105ff565b005b34801561016e57600080fd5b5061025a600480360381019080803573ffffffffffffffffffffffffffffffffffffffff1690602001909291908035906020019092919080359060200190929190803590602001908201803590602001908080601f0160208091040260200160405190810160405280939291908181526020018383808284378201915050505050509192919290803590602001908201803590602001908080601f0160208091040260200160405190810160405280939291908181526020018383808284378201915050505050509192919290803560ff16906020019092919080359060200190929190505050610609565b005b34801561026857600080fd5b5061028a600480360381019080803560ff169060200190929190505050610791565b6040518080602001806020018460ff1660ff168152602001838103835286818151815260200191508051906020019080838360005b838110156102da5780820151818401526020810190506102bf565b50505050905090810190601f1680156103075780820380516001836020036101000a031916815260200191505b50838103825285818151815260200191508051906020019080838360005b83811015610340578082015181840152602081019050610325565b50505050905090810190601f16801561036d5780820380516001836020036101000a031916815260200191505b509550505050505060405180910390f35b34801561038a57600080fd5b506103bf600480360381019080803573ffffffffffffffffffffffffffffffffffffffff169060200190929190505050610952565b005b3480156103cd57600080fd5b506104996004803603810190808035906020019092919080359060200190929190803560ff169060200190929190803590602001908201803590602001908080601f0160208091040260200160405190810160405280939291908181526020018383808284378201915050505050509192919290803590602001908201803590602001908080601f016020809104026020016040519081016040528093929190818152602001838380828437820191505050505050919291929080359060200190929190505050610996565b604051808215151515815260200191505060405180910390f35b3480156104bf57600080fd5b506104f4600480360381019080803573ffffffffffffffffffffffffffffffffffffffff169060200190929190505050610b08565b604051808215151515815260200191505060405180910390f35b34801561051a57600080fd5b506105bb600480360381019080803590602001908201803590602001908080601f0160208091040260200160405190810160405280939291908181526020018383808284378201915050505050509192919290803590602001908201803590602001908080601f0160208091040260200160405190810160405280939291908181526020018383808284378201915050505050509192919290505050610ba4565b005b6000600560009054906101000a900460ff16905090565b6000600680549050905090565b80600560006101000a81548160ff021916908360ff16021790555050565b8060018190555050565b610611610bf5565b876000806101000a81548173ffffffffffffffffffffffffffffffffffffffff021916908373ffffffffffffffffffffffffffffffffffffffff16021790555085600181905550866002819055508460039080519060200190610675929190610c21565b50836004908051906020019061068c929190610c21565b5082600560006101000a81548160ff021916908360ff1602179055506080604051908101604052808681526020018581526020018460ff1681526020018381525090506000600560156101000a81548161ffff021916908361ffff160217905550806006600560159054906101000a900461ffff1661ffff1681548110151561071157fe5b9060005260206000209060040201600082015181600001908051906020019061073b929190610ca1565b506020820151816001019080519060200190610758929190610ca1565b5060408201518160020160006101000a81548160ff021916908360ff160217905550606082015181600301559050505050505050505050565b606080600060068460ff168154811015156107a857fe5b906000526020600020906004020160000160068560ff168154811015156107cb57fe5b906000526020600020906004020160010160068660ff168154811015156107ee57fe5b906000526020600020906004020160020160009054906101000a900460ff16828054600181600116156101000203166002900480601f0160208091040260200160405190810160405280929190818152602001828054600181600116156101000203166002900480156108a25780601f10610877576101008083540402835291602001916108a2565b820191906000526020600020905b81548152906001019060200180831161088557829003601f168201915b50505050509250818054600181600116156101000203166002900480601f01602080910402602001604051908101604052809291908181526020018280546001816001161561010002031660029004801561093e5780601f106109135761010080835404028352916020019161093e565b820191906000526020600020905b81548152906001019060200180831161092157829003601f168201915b505050505091509250925092509193909250565b80600560016101000a81548173ffffffffffffffffffffffffffffffffffffffff021916908373ffffffffffffffffffffffffffffffffffffffff16021790555050565b60006109a0610bf5565b6109a988610bd6565b156109b75760009150610afd565b8660018190555084600390805190602001906109d4929190610c21565b5083600490805190602001906109eb929190610c21565b5085600560006101000a81548160ff021916908360ff1602179055506080604051908101604052808681526020018581526020018760ff1681526020018481525090506001600560159054906101000a900461ffff1601600560156101000a81548161ffff021916908361ffff160217905550806006600560159054906101000a900461ffff1661ffff16815481101515610a8257fe5b90600052602060002090600402016000820151816000019080519060200190610aac929190610ca1565b506020820151816001019080519060200190610ac9929190610ca1565b5060408201518160020160006101000a81548160ff021916908360ff16021790555060608201518160030155905050600191505b509695505050505050565b60008173ffffffffffffffffffffffffffffffffffffffff16600560019054906101000a900473ffffffffffffffffffffffffffffffffffffffff1673ffffffffffffffffffffffffffffffffffffffff161415610b9b57600560019054906101000a900473ffffffffffffffffffffffffffffffffffffffff1673ffffffffffffffffffffffffffffffffffffffff16ff5b60009050919050565b8160039080519060200190610bba929190610c21565b508060049080519060200190610bd1929190610c21565b505050565b6000816001541415610beb5760019050610bf0565b600090505b919050565b6080604051908101604052806060815260200160608152602001600060ff168152602001600081525090565b828054600181600116156101000203166002900490600052602060002090601f016020900481019282601f10610c6257805160ff1916838001178555610c90565b82800160010185558215610c90579182015b82811115610c8f578251825591602001919060010190610c74565b5b509050610c9d9190610d21565b5090565b828054600181600116156101000203166002900490600052602060002090601f016020900481019282601f10610ce257805160ff1916838001178555610d10565b82800160010185558215610d10579182015b82811115610d0f578251825591602001919060010190610cf4565b5b509050610d1d9190610d21565b5090565b610d4391905b80821115610d3f576000816000905550600101610d27565b5090565b905600a165627a7a723058206483209cc23c54bfd99ae164cb85a7277a2c331ddfc4a8b7193a938ec3d574220029",
  "source": "pragma solidity ^0.4.2;\n\nimport \"./ProductType.sol\";\ncontract ProductItem {\n  ProductType mParent;\n  uint256 mCurrentDynamicCode;\n  uint256 uniqueIndex;\n  string mCurrentLongtitude;\n  string mCurrentLantitue;\n  uint8 mCurrentState;\n  address owner;\n  uint16 mIndex;\n\n  struct ItemStateInfo {\n    string longtitude;\n    string lantitue;\n    uint8  state;\n    uint256 timestamp;\n    /*\n    0:create\n    1:online to sell\n    2:offline to sell\n    3：scan by user\n    4:presell\n    5.delivering...\n    6.used\n    7.resell\n    8.destory\n    */\n\n  }\n\n  ItemStateInfo[] stateList;\n\n  function setDynamicCode(uint256 newCode) {\n    mCurrentDynamicCode = newCode;\n  }\n\n  function setLocation(string newLong, string newLant) {\n    mCurrentLongtitude = newLong;\n    mCurrentLantitue =newLant;\n  }\n\n  function setState(uint8 newState) {\n    mCurrentState = newState;\n\n  }\n\n  constructor() public {\n\n  }\n\n  function init(ProductType p, uint256 index, uint256 code, string longti, string lantitude, uint8 s, uint256 time) public {\n    mParent = p;\n    mCurrentDynamicCode = code;\n    uniqueIndex = index;\n    mCurrentLongtitude = longti;\n    mCurrentLantitue = lantitude;\n    mCurrentState = s;\n    ItemStateInfo memory stateInfo = ItemStateInfo({longtitude:longti, lantitue:lantitude, state:s, timestamp: time});\n    mIndex = 0;\n    stateList[mIndex] = stateInfo;\n\n\n  }\n\n  function isCounterFei(uint256 aCode) private returns (bool) {\n    if(mCurrentDynamicCode == aCode){\n      return true;\n    }\n    else{\n      return false;\n    }\n  }\n\n  function getState() public returns (uint8){\n    return mCurrentState;\n  }\n\n  function scanProduct(uint256 code, uint256 newCode, uint8 s, string lon, string lant,uint256 time) returns (bool){\n    if(isCounterFei(code)){\n      return false;\n    }\n    else{\n      mCurrentDynamicCode = newCode;\n      mCurrentLongtitude = lon;\n      mCurrentLantitue = lant;\n      mCurrentState = s;\n      ItemStateInfo memory stateInfo =  ItemStateInfo({longtitude:lon, lantitue:lant, state:s, timestamp: time});\n      mIndex = mIndex +1;\n      stateList[mIndex] = stateInfo;\n      return true;\n    }\n  }\n\n  function getStateLen() public constant returns (uint256) {\n    return stateList.length;\n  }\n\n  function getSateInfo(uint8 index) returns (string, string, uint8) {\n    return (stateList[index].longtitude, stateList[index].lantitue, stateList[index].state);\n  }\n\n  function buyThis(address buyer) {\n    owner = buyer;\n\n  }\n\n  function destoryThis(address user) returns (bool) {\n    if(owner == user){\n      selfdestruct(owner);\n      return true;\n    }\n    else{\n      return false;\n    }\n  }\n\n\n}\n",
  "sourcePath": "/Users/fuqinqin/Downloads/demo03/contracts/ProductItem.sol",
  "compiler": {
    "name": "solc",
    "version": "0.4.24+commit.e67f0147.Emscripten.clang"
  },
  "schemaVersion": "2.0.1",
  "updatedAt": "2018-09-22T08:02:55.053Z"
}